{
  "contractName": "Strings",
  "abi": [
    {
      "constant": true,
      "inputs": [
        {
          "internalType": "string",
          "name": "str",
          "type": "string"
        }
      ],
      "name": "length",
      "outputs": [
        {
          "internalType": "uint256",
          "name": "",
          "type": "uint256"
        }
      ],
      "payable": false,
      "stateMutability": "pure",
      "type": "function"
    },
    {
      "constant": true,
      "inputs": [
        {
          "internalType": "string",
          "name": "str1",
          "type": "string"
        },
        {
          "internalType": "string",
          "name": "str2",
          "type": "string"
        }
      ],
      "name": "concatenate",
      "outputs": [
        {
          "internalType": "string",
          "name": "",
          "type": "string"
        }
      ],
      "payable": false,
      "stateMutability": "pure",
      "type": "function"
    }
  ],
  "bytecode": "0x608060405234801561001057600080fd5b50610468806100206000396000f3fe608060405234801561001057600080fd5b50600436106100365760003560e01c8063266001d31461003b578063436a66e714610206575b600080fd5b61018b6004803603604081101561005157600080fd5b810190808035906020019064010000000081111561006e57600080fd5b82018360208201111561008057600080fd5b803590602001918460018302840111640100000000831117156100a257600080fd5b91908080601f016020809104026020016040519081016040528093929190818152602001838380828437600081840152601f19601f8201169050808301925050505050505091929192908035906020019064010000000081111561010557600080fd5b82018360208201111561011757600080fd5b8035906020019184600183028401116401000000008311171561013957600080fd5b91908080601f016020809104026020016040519081016040528093929190818152602001838380828437600081840152601f19601f8201169050808301925050505050505091929192905050506102d5565b6040518080602001828103825283818151815260200191508051906020019080838360005b838110156101cb5780820151818401526020810190506101b0565b50505050905090810190601f1680156101f85780820380516001836020036101000a031916815260200191505b509250505060405180910390f35b6102bf6004803603602081101561021c57600080fd5b810190808035906020019064010000000081111561023957600080fd5b82018360208201111561024b57600080fd5b8035906020019184600183028401116401000000008311171561026d57600080fd5b91908080601f016020809104026020016040519081016040528093929190818152602001838380828437600081840152601f19601f820116905080830192505050505050509192919290505050610422565b6040518082815260200191505060405180910390f35b6060808390506060839050606081518351016040519080825280601f01601f1916602001820160405280156103195781602001600182028038833980820191505090505b5090506060819050600080905060008090505b855181101561039c5785818151811061034157fe5b602001015160f81c60f81b83838151811061035857fe5b60200101907effffffffffffffffffffffffffffffffffffffffffffffffffffffffffffff1916908160001a9053508180600101925050808060010191505061032c565b5060008090505b8451811015610413578481815181106103b857fe5b602001015160f81c60f81b8383815181106103cf57fe5b60200101907effffffffffffffffffffffffffffffffffffffffffffffffffffffffffffff1916908160001a905350818060010192505080806001019150506103a3565b50819550505050505092915050565b60006060829050805191505091905056fea265627a7a72315820e43bdacda75a17673186071b87e138ddb33dfe175db8f4b3aecb2981c099d3b664736f6c63430005100032",
  "source": "pragma solidity ^0.5.0;\n\ncontract Strings {\n    function length(string memory str) pure public returns(uint) {\n        // Convert string into bytes\n        bytes memory str_bytes = bytes(str);\n        return str_bytes.length;\n    }\n    \n    function concatenate(\n        string memory str1, \n        string memory str2\n        ) \n        pure \n        public\n        returns(string memory)\n        {\n            // Input bytes\n            bytes memory str1_bytes = bytes(str1);\n            bytes memory str2_bytes = bytes(str2);\n            string memory str = new string(str1_bytes.length + str2_bytes.length);\n            // Output bytes\n            bytes memory str_bytes = bytes(str);\n            \n            // Index the bytes output\n            uint j = 0;\n            for(uint i = 0; i < str1_bytes.length; i++) {\n                str_bytes[j] = str1_bytes[i];\n                j++;\n            }\n            \n            for(uint i = 0; i < str2_bytes.length; i++) {\n                str_bytes[j] = str2_bytes[i];\n                j++;\n            }\n            \n            // Convert the value back into a string\n            return string(str_bytes);\n        }\n}",
  "sourcePath": "/Users/heyyehudes/Documents/Dapp_30/strings/contracts/Strings.sol",
  "compiler": {
    "name": "solc",
    "version": "0.5.16+commit.9c3226ce.Emscripten.clang"
  },
  "schemaVersion": "3.3.1",
  "updatedAt": "2021-01-27T21:48:19.472Z",
  "networkType": "ethereum",
  "devdoc": {
    "methods": {}
  },
  "userdoc": {
    "methods": {}
  }
}